:100000000C945C000C9479000C9479000C947900A9
:100010000C9479000C9479000C9479000C94A10054
:100020000C9479000C9479000C9479000C9479006C
:100030000C9479000C9479000C9479000C9479005C
:100040000C9418130C9479000C9479000C9479009A
:100050000C9479000C9479000C9479000C9479003C
:100060000C9479000C947900000000070002010054
:100070000003040600000000000000000102040864
:100080001020408001020408102001020408102002
:10009000040404040404040402020202020203032E
:1000A0000303030300000000250028002B000000CC
:1000B0000000240027002A0011241FBECFEFD8E043
:1000C000DEBFCDBF21E0A4E0B1E001C01D92AF349E
:1000D000B207E1F711E0A0E0B1E0EEE3F7E202C021
:1000E00005900D92A430B107D9F70E940B130C9420
:1000F0009D130C940000CF93C0E061E08C2F0E9410
:100100009C12CF5FCE30C9F78FEF87B918B8109225
:10011000B0001092B1008091B00082608093B00076
:100120008AE08093B3001092B2008091B1008660A3
:100130008093B10080917000826080937000CF91B5
:1001400008951F920F920FB60F9211242F933F9391
:100150004F935F936F937F938F939F93AF93BF93CF
:10016000EF93FF9318B885B18F7085B92B9A80E013
:1001700090E0E0910401F091050153E0EE0FFF1FC4
:100180005A95E1F7E80FF91FEA5FFE4F20812BB97E
:1001900035B121E0280F2770387F232B25B9019630
:1001A0008830910531F785B1877385B98091040155
:1001B0009091050106976CF420910401309105019E
:1001C00081E090E0022E01C0880F0A94EAF788B916
:1001D0000CC0809104019091050161E0069711F433
:1001E0008CE001C08DE00E94D512809104019091B5
:1001F000050101969093050180930401809104010B
:1002000090910501089721F41092050110920401C4
:10021000FF91EF91BF91AF919F918F917F916F91DE
:100220005F914F913F912F910F900FBE0F901F90B4
:100230001895089738F46830710520F481E048304B
:10024000510508F080E00895FF920F931F93CF931C
:10025000DF93F82EEB018A010E941901882399F09F
:10026000F80163E0EE0FFF1F6A95E1F7EC0FFD1F49
:10027000EA5FFE4F908121E030E001C0220FFA9446
:10028000EAF7922B9083DF91CF911F910F91FF900E
:100290000895FF920F931F93CF93DF93F82EEB01F6
:1002A0008A010E9419018823A1F0F80173E0EE0F82
:1002B000FF1F7A95E1F7EC0FFD1FEA5FFE4F80818B
:1002C00021E030E001C0220FFA94EAF720952823BC
:1002D0002083DF91CF911F910F91FF900895009798
:1002E00059F02AE5000000000000000000000000B6
:1002F0002150C1F70197F3CF089540E050E060E04E
:1003000070E080E090E00E94240141E050E060E075
:1003100070E080E090E00E94240142E050E060E064
:1003200070E080E090E00E94240143E050E060E053
:1003300070E080E090E00E94240144E050E060E042
:1003400070E080E090E00E94240145E050E060E031
:1003500070E080E090E00E94240146E050E060E020
:1003600070E080E090E00E94240147E050E060E00F
:1003700070E080E090E00E94240140E050E061E005
:1003800070E080E090E00E94240141E050E061E0F4
:1003900070E080E090E00E94240142E050E061E0E3
:1003A00070E080E090E00E94240143E050E061E0D2
:1003B00070E080E090E00E94240144E050E061E0C1
:1003C00070E080E090E00E94240145E050E061E0B0
:1003D00070E080E090E00E94240146E050E061E09F
:1003E00070E080E090E00E94240147E050E061E08E
:1003F00070E080E090E00E94240140E050E062E084
:1004000070E080E090E00E94240141E050E062E072
:1004100070E080E090E00E94240142E050E062E061
:1004200070E080E090E00E94240143E050E062E050
:1004300070E080E090E00E94240144E050E062E03F
:1004400070E080E090E00E94240145E050E062E02E
:1004500070E080E090E00E94240146E050E062E01D
:1004600070E080E090E00E94240147E050E062E00C
:1004700070E080E090E00E94240140E050E063E002
:1004800070E080E090E00E94240141E050E063E0F1
:1004900070E080E090E00E94240142E050E063E0E0
:1004A00070E080E090E00E94240143E050E063E0CF
:1004B00070E080E090E00E94240144E050E063E0BE
:1004C00070E080E090E00E94240145E050E063E0AD
:1004D00070E080E090E00E94240146E050E063E09C
:1004E00070E080E090E00E94240147E050E063E08B
:1004F00070E080E090E00E94240140E050E064E081
:1005000070E080E090E00E94240141E050E064E06F
:1005100070E080E090E00E94240142E050E064E05E
:1005200070E080E090E00E94240143E050E064E04D
:1005300070E080E090E00E94240144E050E064E03C
:1005400070E080E090E00E94240145E050E064E02B
:1005500070E080E090E00E94240146E050E064E01A
:1005600070E080E090E00E94240147E050E064E009
:1005700070E080E090E00E94240140E050E065E0FF
:1005800070E080E090E00E94240141E050E065E0EE
:1005900070E080E090E00E94240142E050E065E0DD
:1005A00070E080E090E00E94240143E050E065E0CC
:1005B00070E080E090E00E94240144E050E065E0BB
:1005C00070E080E090E00E94240145E050E065E0AA
:1005D00070E080E090E00E94240146E050E065E099
:1005E00070E080E090E00E94240147E050E065E088
:1005F00070E080E090E00E94240140E050E066E07E
:1006000070E080E090E00E94240141E050E066E06C
:1006100070E080E090E00E94240142E050E066E05B
:1006200070E080E090E00E94240143E050E066E04A
:1006300070E080E090E00E94240144E050E066E039
:1006400070E080E090E00E94240145E050E066E028
:1006500070E080E090E00E94240146E050E066E017
:1006600070E080E090E00E94240147E050E066E006
:1006700070E080E090E00E94240140E050E067E0FC
:1006800070E080E090E00E94240141E050E067E0EB
:1006900070E080E090E00E94240142E050E067E0DA
:1006A00070E080E090E00E94240143E050E067E0C9
:1006B00070E080E090E00E94240144E050E067E0B8
:1006C00070E080E090E00E94240145E050E067E0A7
:1006D00070E080E090E00E94240146E050E067E096
:1006E00070E080E090E00E94240147E050E067E085
:1006F00070E080E090E00E94240140E050E060E083
:1007000070E081E090E00E94240141E050E060E070
:1007100070E081E090E00E94240142E050E060E05F
:1007200070E081E090E00E94240143E050E060E04E
:1007300070E081E090E00E94240144E050E060E03D
:1007400070E081E090E00E94240145E050E060E02C
:1007500070E081E090E00E94240146E050E060E01B
:1007600070E081E090E00E94240147E050E060E00A
:1007700070E081E090E00E94240140E050E061E000
:1007800070E081E090E00E94240141E050E061E0EF
:1007900070E081E090E00E94240142E050E061E0DE
:1007A00070E081E090E00E94240143E050E061E0CD
:1007B00070E081E090E00E94240144E050E061E0BC
:1007C00070E081E090E00E94240145E050E061E0AB
:1007D00070E081E090E00E94240146E050E061E09A
:1007E00070E081E090E00E94240147E050E061E089
:1007F00070E081E090E00E94240140E050E062E07F
:1008000070E081E090E00E94240141E050E062E06D
:1008100070E081E090E00E94240142E050E062E05C
:1008200070E081E090E00E94240143E050E062E04B
:1008300070E081E090E00E94240144E050E062E03A
:1008400070E081E090E00E94240145E050E062E029
:1008500070E081E090E00E94240146E050E062E018
:1008600070E081E090E00E94240147E050E062E007
:1008700070E081E090E00E94240140E050E063E0FD
:1008800070E081E090E00E94240141E050E063E0EC
:1008900070E081E090E00E94240142E050E063E0DB
:1008A00070E081E090E00E94240143E050E063E0CA
:1008B00070E081E090E00E94240144E050E063E0B9
:1008C00070E081E090E00E94240145E050E063E0A8
:1008D00070E081E090E00E94240146E050E063E097
:1008E00070E081E090E00E94240147E050E063E086
:1008F00070E081E090E00E94240140E050E064E07C
:1009000070E081E090E00E94240141E050E064E06A
:1009100070E081E090E00E94240142E050E064E059
:1009200070E081E090E00E94240143E050E064E048
:1009300070E081E090E00E94240144E050E064E037
:1009400070E081E090E00E94240145E050E064E026
:1009500070E081E090E00E94240146E050E064E015
:1009600070E081E090E00E94240147E050E064E004
:1009700070E081E090E00E94240140E050E065E0FA
:1009800070E081E090E00E94240141E050E065E0E9
:1009900070E081E090E00E94240142E050E065E0D8
:1009A00070E081E090E00E94240143E050E065E0C7
:1009B00070E081E090E00E94240144E050E065E0B6
:1009C00070E081E090E00E94240145E050E065E0A5
:1009D00070E081E090E00E94240146E050E065E094
:1009E00070E081E090E00E94240147E050E065E083
:1009F00070E081E090E00E94240140E050E066E079
:100A000070E081E090E00E94240141E050E066E067
:100A100070E081E090E00E94240142E050E066E056
:100A200070E081E090E00E94240143E050E066E045
:100A300070E081E090E00E94240144E050E066E034
:100A400070E081E090E00E94240145E050E066E023
:100A500070E081E090E00E94240146E050E066E012
:100A600070E081E090E00E94240147E050E066E001
:100A700070E081E090E00E94240140E050E067E0F7
:100A800070E081E090E00E94240141E050E067E0E6
:100A900070E081E090E00E94240142E050E067E0D5
:100AA00070E081E090E00E94240143E050E067E0C4
:100AB00070E081E090E00E94240144E050E067E0B3
:100AC00070E081E090E00E94240145E050E067E0A2
:100AD00070E081E090E00E94240146E050E067E091
:100AE00070E081E090E00E94240147E050E067E080
:100AF00070E081E090E00E94240140E050E060E07E
:100B000070E082E090E00E94240141E050E060E06B
:100B100070E082E090E00E94240142E050E060E05A
:100B200070E082E090E00E94240143E050E060E049
:100B300070E082E090E00E94240144E050E060E038
:100B400070E082E090E00E94240145E050E060E027
:100B500070E082E090E00E94240146E050E060E016
:100B600070E082E090E00E94240147E050E060E005
:100B700070E082E090E00E94240140E050E061E0FB
:100B800070E082E090E00E94240141E050E061E0EA
:100B900070E082E090E00E94240142E050E061E0D9
:100BA00070E082E090E00E94240143E050E061E0C8
:100BB00070E082E090E00E94240144E050E061E0B7
:100BC00070E082E090E00E94240145E050E061E0A6
:100BD00070E082E090E00E94240146E050E061E095
:100BE00070E082E090E00E94240147E050E061E084
:100BF00070E082E090E00E94240140E050E062E07A
:100C000070E082E090E00E94240141E050E062E068
:100C100070E082E090E00E94240142E050E062E057
:100C200070E082E090E00E94240143E050E062E046
:100C300070E082E090E00E94240144E050E062E035
:100C400070E082E090E00E94240145E050E062E024
:100C500070E082E090E00E94240146E050E062E013
:100C600070E082E090E00E94240147E050E062E002
:100C700070E082E090E00E94240140E050E063E0F8
:100C800070E082E090E00E94240141E050E063E0E7
:100C900070E082E090E00E94240142E050E063E0D6
:100CA00070E082E090E00E94240143E050E063E0C5
:100CB00070E082E090E00E94240144E050E063E0B4
:100CC00070E082E090E00E94240145E050E063E0A3
:100CD00070E082E090E00E94240146E050E063E092
:100CE00070E082E090E00E94240147E050E063E081
:100CF00070E082E090E00E94240140E050E064E077
:100D000070E082E090E00E94240141E050E064E065
:100D100070E082E090E00E94240142E050E064E054
:100D200070E082E090E00E94240143E050E064E043
:100D300070E082E090E00E94240144E050E064E032
:100D400070E082E090E00E94240145E050E064E021
:100D500070E082E090E00E94240146E050E064E010
:100D600070E082E090E00E94240147E050E064E0FF
:100D700070E082E090E00E94240140E050E065E0F5
:100D800070E082E090E00E94240141E050E065E0E4
:100D900070E082E090E00E94240142E050E065E0D3
:100DA00070E082E090E00E94240143E050E065E0C2
:100DB00070E082E090E00E94240144E050E065E0B1
:100DC00070E082E090E00E94240145E050E065E0A0
:100DD00070E082E090E00E94240146E050E065E08F
:100DE00070E082E090E00E94240147E050E065E07E
:100DF00070E082E090E00E94240140E050E066E074
:100E000070E082E090E00E94240141E050E066E062
:100E100070E082E090E00E94240142E050E066E051
:100E200070E082E090E00E94240143E050E066E040
:100E300070E082E090E00E94240144E050E066E02F
:100E400070E082E090E00E94240145E050E066E01E
:100E500070E082E090E00E94240146E050E066E00D
:100E600070E082E090E00E94240147E050E066E0FC
:100E700070E082E090E00E94240140E050E067E0F2
:100E800070E082E090E00E94240141E050E067E0E1
:100E900070E082E090E00E94240142E050E067E0D0
:100EA00070E082E090E00E94240143E050E067E0BF
:100EB00070E082E090E00E94240144E050E067E0AE
:100EC00070E082E090E00E94240145E050E067E09D
:100ED00070E082E090E00E94240146E050E067E08C
:100EE00070E082E090E00E94240147E050E067E07B
:100EF00070E082E090E00E94240140E050E060E079
:100F000070E083E090E00E94240141E050E060E066
:100F100070E083E090E00E94240142E050E060E055
:100F200070E083E090E00E94240143E050E060E044
:100F300070E083E090E00E94240144E050E060E033
:100F400070E083E090E00E94240145E050E060E022
:100F500070E083E090E00E94240146E050E060E011
:100F600070E083E090E00E94240147E050E060E000
:100F700070E083E090E00E94240140E050E061E0F6
:100F800070E083E090E00E94240141E050E061E0E5
:100F900070E083E090E00E94240142E050E061E0D4
:100FA00070E083E090E00E94240143E050E061E0C3
:100FB00070E083E090E00E94240144E050E061E0B2
:100FC00070E083E090E00E94240145E050E061E0A1
:100FD00070E083E090E00E94240146E050E061E090
:100FE00070E083E090E00E94240147E050E061E07F
:100FF00070E083E090E00E94240140E050E062E075
:1010000070E083E090E00E94240141E050E062E063
:1010100070E083E090E00E94240142E050E062E052
:1010200070E083E090E00E94240143E050E062E041
:1010300070E083E090E00E94240144E050E062E030
:1010400070E083E090E00E94240145E050E062E01F
:1010500070E083E090E00E94240146E050E062E00E
:1010600070E083E090E00E94240147E050E062E0FD
:1010700070E083E090E00E94240140E050E063E0F3
:1010800070E083E090E00E94240141E050E063E0E2
:1010900070E083E090E00E94240142E050E063E0D1
:1010A00070E083E090E00E94240143E050E063E0C0
:1010B00070E083E090E00E94240144E050E063E0AF
:1010C00070E083E090E00E94240145E050E063E09E
:1010D00070E083E090E00E94240146E050E063E08D
:1010E00070E083E090E00E94240147E050E063E07C
:1010F00070E083E090E00E94240140E050E064E072
:1011000070E083E090E00E94240141E050E064E060
:1011100070E083E090E00E94240142E050E064E04F
:1011200070E083E090E00E94240143E050E064E03E
:1011300070E083E090E00E94240144E050E064E02D
:1011400070E083E090E00E94240145E050E064E01C
:1011500070E083E090E00E94240146E050E064E00B
:1011600070E083E090E00E94240147E050E064E0FA
:1011700070E083E090E00E94240140E050E065E0F0
:1011800070E083E090E00E94240141E050E065E0DF
:1011900070E083E090E00E94240142E050E065E0CE
:1011A00070E083E090E00E94240143E050E065E0BD
:1011B00070E083E090E00E94240144E050E065E0AC
:1011C00070E083E090E00E94240145E050E065E09B
:1011D00070E083E090E00E94240146E050E065E08A
:1011E00070E083E090E00E94240147E050E065E079
:1011F00070E083E090E00E94240140E050E066E06F
:1012000070E083E090E00E94240141E050E066E05D
:1012100070E083E090E00E94240142E050E066E04C
:1012200070E083E090E00E94240143E050E066E03B
:1012300070E083E090E00E94240144E050E066E02A
:1012400070E083E090E00E94240145E050E066E019
:1012500070E083E090E00E94240146E050E066E008
:1012600070E083E090E00E94240147E050E066E0F7
:1012700070E083E090E00E94240140E050E067E0ED
:1012800070E083E090E00E94240141E050E067E0DC
:1012900070E083E090E00E94240142E050E067E0CB
:1012A00070E083E090E00E94240143E050E067E0BA
:1012B00070E083E090E00E94240144E050E067E0A9
:1012C00070E083E090E00E94240145E050E067E098
:1012D00070E083E090E00E94240146E050E067E087
:1012E00070E083E090E00E94240147E050E067E076
:1012F00070E083E090E00E94240140E050E060E074
:1013000070E084E090E00E94240141E050E060E061
:1013100070E084E090E00E94240142E050E060E050
:1013200070E084E090E00E94240143E050E060E03F
:1013300070E084E090E00E94240144E050E060E02E
:1013400070E084E090E00E94240145E050E060E01D
:1013500070E084E090E00E94240146E050E060E00C
:1013600070E084E090E00E94240147E050E060E0FB
:1013700070E084E090E00E94240140E050E061E0F1
:1013800070E084E090E00E94240141E050E061E0E0
:1013900070E084E090E00E94240142E050E061E0CF
:1013A00070E084E090E00E94240143E050E061E0BE
:1013B00070E084E090E00E94240144E050E061E0AD
:1013C00070E084E090E00E94240145E050E061E09C
:1013D00070E084E090E00E94240146E050E061E08B
:1013E00070E084E090E00E94240147E050E061E07A
:1013F00070E084E090E00E94240140E050E062E070
:1014000070E084E090E00E94240141E050E062E05E
:1014100070E084E090E00E94240142E050E062E04D
:1014200070E084E090E00E94240143E050E062E03C
:1014300070E084E090E00E94240144E050E062E02B
:1014400070E084E090E00E94240145E050E062E01A
:1014500070E084E090E00E94240146E050E062E009
:1014600070E084E090E00E94240147E050E062E0F8
:1014700070E084E090E00E94240140E050E063E0EE
:1014800070E084E090E00E94240141E050E063E0DD
:1014900070E084E090E00E94240142E050E063E0CC
:1014A00070E084E090E00E94240143E050E063E0BB
:1014B00070E084E090E00E94240144E050E063E0AA
:1014C00070E084E090E00E94240145E050E063E099
:1014D00070E084E090E00E94240146E050E063E088
:1014E00070E084E090E00E94240147E050E063E077
:1014F00070E084E090E00E94240140E050E064E06D
:1015000070E084E090E00E94240141E050E064E05B
:1015100070E084E090E00E94240142E050E064E04A
:1015200070E084E090E00E94240143E050E064E039
:1015300070E084E090E00E94240144E050E064E028
:1015400070E084E090E00E94240145E050E064E017
:1015500070E084E090E00E94240146E050E064E006
:1015600070E084E090E00E94240147E050E064E0F5
:1015700070E084E090E00E94240140E050E065E0EB
:1015800070E084E090E00E94240141E050E065E0DA
:1015900070E084E090E00E94240142E050E065E0C9
:1015A00070E084E090E00E94240143E050E065E0B8
:1015B00070E084E090E00E94240144E050E065E0A7
:1015C00070E084E090E00E94240145E050E065E096
:1015D00070E084E090E00E94240146E050E065E085
:1015E00070E084E090E00E94240147E050E065E074
:1015F00070E084E090E00E94240140E050E066E06A
:1016000070E084E090E00E94240141E050E066E058
:1016100070E084E090E00E94240142E050E066E047
:1016200070E084E090E00E94240143E050E066E036
:1016300070E084E090E00E94240144E050E066E025
:1016400070E084E090E00E94240145E050E066E014
:1016500070E084E090E00E94240146E050E066E003
:1016600070E084E090E00E94240147E050E066E0F2
:1016700070E084E090E00E94240140E050E067E0E8
:1016800070E084E090E00E94240141E050E067E0D7
:1016900070E084E090E00E94240142E050E067E0C6
:1016A00070E084E090E00E94240143E050E067E0B5
:1016B00070E084E090E00E94240144E050E067E0A4
:1016C00070E084E090E00E94240145E050E067E093
:1016D00070E084E090E00E94240146E050E067E082
:1016E00070E084E090E00E94240147E050E067E071
:1016F00070E084E090E00E94240140E050E060E06F
:1017000070E085E090E00E94240141E050E060E05C
:1017100070E085E090E00E94240142E050E060E04B
:1017200070E085E090E00E94240143E050E060E03A
:1017300070E085E090E00E94240144E050E060E029
:1017400070E085E090E00E94240145E050E060E018
:1017500070E085E090E00E94240146E050E060E007
:1017600070E085E090E00E94240147E050E060E0F6
:1017700070E085E090E00E94240140E050E061E0EC
:1017800070E085E090E00E94240141E050E061E0DB
:1017900070E085E090E00E94240142E050E061E0CA
:1017A00070E085E090E00E94240143E050E061E0B9
:1017B00070E085E090E00E94240144E050E061E0A8
:1017C00070E085E090E00E94240145E050E061E097
:1017D00070E085E090E00E94240146E050E061E086
:1017E00070E085E090E00E94240147E050E061E075
:1017F00070E085E090E00E94240140E050E062E06B
:1018000070E085E090E00E94240141E050E062E059
:1018100070E085E090E00E94240142E050E062E048
:1018200070E085E090E00E94240143E050E062E037
:1018300070E085E090E00E94240144E050E062E026
:1018400070E085E090E00E94240145E050E062E015
:1018500070E085E090E00E94240146E050E062E004
:1018600070E085E090E00E94240147E050E062E0F3
:1018700070E085E090E00E94240140E050E063E0E9
:1018800070E085E090E00E94240141E050E063E0D8
:1018900070E085E090E00E94240142E050E063E0C7
:1018A00070E085E090E00E94240143E050E063E0B6
:1018B00070E085E090E00E94240144E050E063E0A5
:1018C00070E085E090E00E94240145E050E063E094
:1018D00070E085E090E00E94240146E050E063E083
:1018E00070E085E090E00E94240147E050E063E072
:1018F00070E085E090E00E94240140E050E064E068
:1019000070E085E090E00E94240141E050E064E056
:1019100070E085E090E00E94240142E050E064E045
:1019200070E085E090E00E94240143E050E064E034
:1019300070E085E090E00E94240144E050E064E023
:1019400070E085E090E00E94240145E050E064E012
:1019500070E085E090E00E94240146E050E064E001
:1019600070E085E090E00E94240147E050E064E0F0
:1019700070E085E090E00E94240140E050E065E0E6
:1019800070E085E090E00E94240141E050E065E0D5
:1019900070E085E090E00E94240142E050E065E0C4
:1019A00070E085E090E00E94240143E050E065E0B3
:1019B00070E085E090E00E94240144E050E065E0A2
:1019C00070E085E090E00E94240145E050E065E091
:1019D00070E085E090E00E94240146E050E065E080
:1019E00070E085E090E00E94240147E050E065E06F
:1019F00070E085E090E00E94240140E050E066E065
:101A000070E085E090E00E94240141E050E066E053
:101A100070E085E090E00E94240142E050E066E042
:101A200070E085E090E00E94240143E050E066E031
:101A300070E085E090E00E94240144E050E066E020
:101A400070E085E090E00E94240145E050E066E00F
:101A500070E085E090E00E94240146E050E066E0FE
:101A600070E085E090E00E94240147E050E066E0ED
:101A700070E085E090E00E94240140E050E067E0E3
:101A800070E085E090E00E94240141E050E067E0D2
:101A900070E085E090E00E94240142E050E067E0C1
:101AA00070E085E090E00E94240143E050E067E0B0
:101AB00070E085E090E00E94240144E050E067E09F
:101AC00070E085E090E00E94240145E050E067E08E
:101AD00070E085E090E00E94240146E050E067E07D
:101AE00070E085E090E00E94240147E050E067E06C
:101AF00070E085E090E00E94240140E050E060E06A
:101B000070E086E090E00E94240141E050E060E057
:101B100070E086E090E00E94240142E050E060E046
:101B200070E086E090E00E94240143E050E060E035
:101B300070E086E090E00E94240144E050E060E024
:101B400070E086E090E00E94240145E050E060E013
:101B500070E086E090E00E94240146E050E060E002
:101B600070E086E090E00E94240147E050E060E0F1
:101B700070E086E090E00E94240140E050E061E0E7
:101B800070E086E090E00E94240141E050E061E0D6
:101B900070E086E090E00E94240142E050E061E0C5
:101BA00070E086E090E00E94240143E050E061E0B4
:101BB00070E086E090E00E94240144E050E061E0A3
:101BC00070E086E090E00E94240145E050E061E092
:101BD00070E086E090E00E94240146E050E061E081
:101BE00070E086E090E00E94240147E050E061E070
:101BF00070E086E090E00E94240140E050E062E066
:101C000070E086E090E00E94240141E050E062E054
:101C100070E086E090E00E94240142E050E062E043
:101C200070E086E090E00E94240143E050E062E032
:101C300070E086E090E00E94240144E050E062E021
:101C400070E086E090E00E94240145E050E062E010
:101C500070E086E090E00E94240146E050E062E0FF
:101C600070E086E090E00E94240147E050E062E0EE
:101C700070E086E090E00E94240140E050E063E0E4
:101C800070E086E090E00E94240141E050E063E0D3
:101C900070E086E090E00E94240142E050E063E0C2
:101CA00070E086E090E00E94240143E050E063E0B1
:101CB00070E086E090E00E94240144E050E063E0A0
:101CC00070E086E090E00E94240145E050E063E08F
:101CD00070E086E090E00E94240146E050E063E07E
:101CE00070E086E090E00E94240147E050E063E06D
:101CF00070E086E090E00E94240140E050E064E063
:101D000070E086E090E00E94240141E050E064E051
:101D100070E086E090E00E94240142E050E064E040
:101D200070E086E090E00E94240143E050E064E02F
:101D300070E086E090E00E94240144E050E064E01E
:101D400070E086E090E00E94240145E050E064E00D
:101D500070E086E090E00E94240146E050E064E0FC
:101D600070E086E090E00E94240147E050E064E0EB
:101D700070E086E090E00E94240140E050E065E0E1
:101D800070E086E090E00E94240141E050E065E0D0
:101D900070E086E090E00E94240142E050E065E0BF
:101DA00070E086E090E00E94240143E050E065E0AE
:101DB00070E086E090E00E94240144E050E065E09D
:101DC00070E086E090E00E94240145E050E065E08C
:101DD00070E086E090E00E94240146E050E065E07B
:101DE00070E086E090E00E94240147E050E065E06A
:101DF00070E086E090E00E94240140E050E066E060
:101E000070E086E090E00E94240141E050E066E04E
:101E100070E086E090E00E94240142E050E066E03D
:101E200070E086E090E00E94240143E050E066E02C
:101E300070E086E090E00E94240144E050E066E01B
:101E400070E086E090E00E94240145E050E066E00A
:101E500070E086E090E00E94240146E050E066E0F9
:101E600070E086E090E00E94240147E050E066E0E8
:101E700070E086E090E00E94240140E050E067E0DE
:101E800070E086E090E00E94240141E050E067E0CD
:101E900070E086E090E00E94240142E050E067E0BC
:101EA00070E086E090E00E94240143E050E067E0AB
:101EB00070E086E090E00E94240144E050E067E09A
:101EC00070E086E090E00E94240145E050E067E089
:101ED00070E086E090E00E94240146E050E067E078
:101EE00070E086E090E00E94240147E050E067E067
:101EF00070E086E090E00E94240140E050E060E065
:101F000070E087E090E00E94240141E050E060E052
:101F100070E087E090E00E94240142E050E060E041
:101F200070E087E090E00E94240143E050E060E030
:101F300070E087E090E00E94240144E050E060E01F
:101F400070E087E090E00E94240145E050E060E00E
:101F500070E087E090E00E94240146E050E060E0FD
:101F600070E087E090E00E94240147E050E060E0EC
:101F700070E087E090E00E94240140E050E061E0E2
:101F800070E087E090E00E94240141E050E061E0D1
:101F900070E087E090E00E94240142E050E061E0C0
:101FA00070E087E090E00E94240143E050E061E0AF
:101FB00070E087E090E00E94240144E050E061E09E
:101FC00070E087E090E00E94240145E050E061E08D
:101FD00070E087E090E00E94240146E050E061E07C
:101FE00070E087E090E00E94240147E050E061E06B
:101FF00070E087E090E00E94240140E050E062E061
:1020000070E087E090E00E94240141E050E062E04F
:1020100070E087E090E00E94240142E050E062E03E
:1020200070E087E090E00E94240143E050E062E02D
:1020300070E087E090E00E94240144E050E062E01C
:1020400070E087E090E00E94240145E050E062E00B
:1020500070E087E090E00E94240146E050E062E0FA
:1020600070E087E090E00E94240147E050E062E0E9
:1020700070E087E090E00E94240140E050E063E0DF
:1020800070E087E090E00E94240141E050E063E0CE
:1020900070E087E090E00E94240142E050E063E0BD
:1020A00070E087E090E00E94240143E050E063E0AC
:1020B00070E087E090E00E94240144E050E063E09B
:1020C00070E087E090E00E94240145E050E063E08A
:1020D00070E087E090E00E94240146E050E063E079
:1020E00070E087E090E00E94240147E050E063E068
:1020F00070E087E090E00E94240140E050E064E05E
:1021000070E087E090E00E94240141E050E064E04C
:1021100070E087E090E00E94240142E050E064E03B
:1021200070E087E090E00E94240143E050E064E02A
:1021300070E087E090E00E94240144E050E064E019
:1021400070E087E090E00E94240145E050E064E008
:1021500070E087E090E00E94240146E050E064E0F7
:1021600070E087E090E00E94240147E050E064E0E6
:1021700070E087E090E00E94240140E050E065E0DC
:1021800070E087E090E00E94240141E050E065E0CB
:1021900070E087E090E00E94240142E050E065E0BA
:1021A00070E087E090E00E94240143E050E065E0A9
:1021B00070E087E090E00E94240144E050E065E098
:1021C00070E087E090E00E94240145E050E065E087
:1021D00070E087E090E00E94240146E050E065E076
:1021E00070E087E090E00E94240147E050E065E065
:1021F00070E087E090E00E94240140E050E066E05B
:1022000070E087E090E00E94240141E050E066E049
:1022100070E087E090E00E94240142E050E066E038
:1022200070E087E090E00E94240143E050E066E027
:1022300070E087E090E00E94240144E050E066E016
:1022400070E087E090E00E94240145E050E066E005
:1022500070E087E090E00E94240146E050E066E0F4
:1022600070E087E090E00E94240147E050E066E0E3
:1022700070E087E090E00E94240140E050E067E0D9
:1022800070E087E090E00E94240141E050E067E0C8
:1022900070E087E090E00E94240142E050E067E0B7
:1022A00070E087E090E00E94240143E050E067E0A6
:1022B00070E087E090E00E94240144E050E067E095
:1022C00070E087E090E00E94240145E050E067E084
:1022D00070E087E090E00E94240146E050E067E073
:1022E00070E087E090E00E94240147E050E067E062
:1022F00070E087E090E00E94240188E893E10E946A
:102300006F0140E050E060E070E080E090E00E940B
:10231000490140E050E060E070E081E090E00E9420
:10232000490140E050E060E070E082E090E00E940F
:10233000490140E050E060E070E083E090E00E94FE
:10234000490140E050E060E070E084E090E00E94ED
:10235000490140E050E060E070E085E090E00E94DC
:10236000490140E050E060E070E086E090E00E94CB
:10237000490140E050E060E070E087E090E00E94BA
:10238000490180ED97E00E946F0140E050E060E07D
:1023900070E080E090E00E94490140E050E061E0A0
:1023A00070E080E090E00E94490140E050E062E08F
:1023B00070E080E090E00E94490140E050E063E07E
:1023C00070E080E090E00E94490140E050E064E06D
:1023D00070E080E090E00E94490140E050E065E05C
:1023E00070E080E090E00E94490140E050E066E04B
:1023F00070E080E090E00E94490140E050E067E03A
:1024000070E080E090E00E94490180ED97E00E943A
:102410006F0140E050E060E070E080E090E00E94FA
:10242000490141E050E060E070E080E090E00E940F
:10243000490142E050E060E070E080E090E00E94FE
:10244000490143E050E060E070E080E090E00E94ED
:10245000490144E050E060E070E080E090E00E94DC
:10246000490145E050E060E070E080E090E00E94CB
:10247000490146E050E060E070E080E090E00E94BA
:10248000490147E050E060E070E080E090E00E94A9
:10249000490180ED97E00E946F0142E050E061E069
:1024A00070E080E090E00E94240143E050E061E0B1
:1024B00070E080E090E00E94240180EB94E00E94B4
:1024C0006F0142E050E061E070E080E090E00E9447
:1024D000490147E050E067E070E087E090E00E944B
:1024E00024010C947D01833081F028F4813099F02F
:1024F0008230A1F008958630A9F08730B9F0843099
:10250000D1F4809180008F7D03C0809180008F770F
:1025100080938000089584B58F7702C084B58F7D45
:1025200084BD08958091B0008F7703C08091B00082
:102530008F7D8093B0000895CF93DF9390E0FC01EE
:10254000E458FF4F2491FC01E057FF4F849188230A
:1025500049F190E0880F991FFC01E255FF4FA591CA
:10256000B4918C559F4FFC01C591D4919FB76111D7
:1025700008C0F8948C91209582238C9388818223C3
:102580000AC0623051F4F8948C91322F3095832335
:102590008C938881822B888304C0F8948C91822B41
:1025A0008C939FBFDF91CF9108950F931F93CF938B
:1025B000DF931F92CDB7DEB7282F30E0F901E8593D
:1025C000FF4F8491F901E458FF4F1491F901E0574E
:1025D000FF4F04910023C9F0882321F069830E94F2
:1025E00073126981E02FF0E0EE0FFF1FEC55FF4FF3
:1025F000A591B4919FB7F8948C91611103C0109587
:10260000812301C0812B8C939FBF0F90DF91CF91CD
:102610001F910F9108950E9462130E947B00C0E0F9
:10262000D0E00E947D012097E1F30E940000F9CFE5
:102630001F920F920FB60F9211242F933F938F93F7
:102640009F93AF93BF938091470190914801A091D0
:102650004901B0914A013091460123E0230F2D3703
:1026600020F40196A11DB11D05C026E8230F029696
:10267000A11DB11D2093460180934701909348010D
:10268000A0934901B0934A0180914B0190914C0174
:10269000A0914D01B0914E010196A11DB11D8093F5
:1026A0004B0190934C01A0934D01B0934E01BF910B
:1026B000AF919F918F913F912F910F900FBE0F90EF
:1026C0001F901895789484B5826084BD84B581602C
:1026D00084BD85B5826085BD85B5816085BDEEE62A
:1026E000F0E0808181608083E1E8F0E01082808109
:1026F00082608083808181608083E0E8F0E0808177
:1027000081608083E1EBF0E0808184608083E0EB96
:10271000F0E0808181608083EAE7F0E0808184607E
:1027200080838081826080838081816080838081DA
:0E273000806880831092C1000895F894FFCF56
:04273E000100000096
:00000001FF
